:03000000020A9B56
:0C0A9B00787FE4F6D8FD7581090209DAC5
:100800000000F88BF8F2F95BF9B7FA14FA66FAB956
:10081000FB03FB4AFB8FFBCFFC0BFC43FC78FCABE0
:10082000FCDBFD08FD33FD5BFD81FDA5FDC7FDE79C
:10083000FE05FE21FE3CFE55FE6DFE84FE99FEADDA
:10084000FEC0FE02FEE3FEF3FF02FF10FF1DFF2AC3
:10085000FF36FF42FF4CFF56FF60FF69FF71FF79D3
:10086000FF810004140411020F0411040F040D048D
:100870000F041106140411020F040D040F041104D7
:100880000F040D020D0416041402110416041102C3
:1008900014021604140200021102140216021906B0
:1008A0001604140211040F10140411020F04110491
:1008B0000F040D040F041106140411020F040D049B
:1008C0000F0411040F040D020D0416041402110488
:1008D00011020F020D021402160414020002140287
:1008E000140211020F04110214020F020D020A0673
:1008F0000D10000814021602190216021402110249
:100900000F02110214021602140600081402160245
:1009100019021602140211020F0211021402160229
:10092000140600081B041D021B02160419021902FA
:100930001B041D021B02140419021D021D022002C9
:100940001D021B0219021B021902160219021B08C2
:1009500000021802160214021402160219021602EC
:10096000140211020F0211021402160214060008EA
:100970001402160219021602140211020F021102C9
:1009800014021602140600081B041D021B021604A2
:10099000190219021B041D022002220220021B025E
:1009A000190220021D021B0219021B021902140265
:1009B00016021910000811100F08140416040F086D
:1009C00018081904180416041404190C1B021D023B
:0A09D0001B0C1D0419101910FFFF85
:100A8900EFD39400400B7EB57DB5DDFEDEFA1F8005
:010A9900EF6D
:010A9A002239
:080AA7007F967E96DEFEDFFA69
:010AAF002224
:03000B00020A5492
:100A5400C0E0C083C082C0D0B2A3E50825E0240072
:100A6400F582E43408F583E493F58CE50825E02465
:100A740001F582E43408F583E493F58AD0D0D0827A
:050A8400D083D0E03238
:1009DA00E4FC758901D2AFD2A975F002ECA42462B5
:1009EA00F582E5F03408F583E493F50875F002EC36
:1009FA00A42463F582E5F03408F583E493F509E568
:100A0A0008700AC28CAF09120A890C80CCE508B4B6
:100A1A00FF0BC28C7F1E120A89E4FC80BC75F002AF
:100A2A00ECA42464F582E5F03408F583E493B50870
:100A3A000FD28CAF09120A89C28C120AA70C8099AC
:0A0A4A00D28CAF09120A890C808FCC
:00000001FF
